{
  "contractName": "LuckyPresentsNFT",
  "abi": [
    {
      "inputs": [
        {
          "internalType": "string",
          "name": "baseURI",
          "type": "string"
        }
      ],
      "stateMutability": "nonpayable",
      "type": "constructor"
    },
    {
      "anonymous": false,
      "inputs": [
        {
          "indexed": true,
          "internalType": "address",
          "name": "owner",
          "type": "address"
        },
        {
          "indexed": true,
          "internalType": "address",
          "name": "approved",
          "type": "address"
        },
        {
          "indexed": true,
          "internalType": "uint256",
          "name": "tokenId",
          "type": "uint256"
        }
      ],
      "name": "Approval",
      "type": "event"
    },
    {
      "anonymous": false,
      "inputs": [
        {
          "indexed": true,
          "internalType": "address",
          "name": "owner",
          "type": "address"
        },
        {
          "indexed": true,
          "internalType": "address",
          "name": "operator",
          "type": "address"
        },
        {
          "indexed": false,
          "internalType": "bool",
          "name": "approved",
          "type": "bool"
        }
      ],
      "name": "ApprovalForAll",
      "type": "event"
    },
    {
      "anonymous": false,
      "inputs": [
        {
          "indexed": true,
          "internalType": "address",
          "name": "receiver",
          "type": "address"
        },
        {
          "indexed": true,
          "internalType": "uint256",
          "name": "rentTokenId",
          "type": "uint256"
        },
        {
          "indexed": false,
          "internalType": "bool",
          "name": "openedByReceiver",
          "type": "bool"
        }
      ],
      "name": "Opened",
      "type": "event"
    },
    {
      "anonymous": false,
      "inputs": [
        {
          "indexed": true,
          "internalType": "address",
          "name": "previousOwner",
          "type": "address"
        },
        {
          "indexed": true,
          "internalType": "address",
          "name": "newOwner",
          "type": "address"
        }
      ],
      "name": "OwnershipTransferred",
      "type": "event"
    },
    {
      "anonymous": false,
      "inputs": [
        {
          "indexed": true,
          "internalType": "address",
          "name": "to",
          "type": "address"
        },
        {
          "indexed": true,
          "internalType": "uint256",
          "name": "tokenId",
          "type": "uint256"
        },
        {
          "indexed": false,
          "internalType": "uint256",
          "name": "price",
          "type": "uint256"
        }
      ],
      "name": "Rented",
      "type": "event"
    },
    {
      "anonymous": false,
      "inputs": [
        {
          "indexed": true,
          "internalType": "address",
          "name": "from",
          "type": "address"
        },
        {
          "indexed": true,
          "internalType": "address",
          "name": "to",
          "type": "address"
        },
        {
          "indexed": true,
          "internalType": "uint256",
          "name": "tokenId",
          "type": "uint256"
        }
      ],
      "name": "Transfer",
      "type": "event"
    },
    {
      "inputs": [],
      "name": "MAX_SUPPLY",
      "outputs": [
        {
          "internalType": "uint256",
          "name": "",
          "type": "uint256"
        }
      ],
      "stateMutability": "view",
      "type": "function",
      "constant": true
    },
    {
      "inputs": [
        {
          "internalType": "address",
          "name": "to",
          "type": "address"
        },
        {
          "internalType": "uint256",
          "name": "tokenId",
          "type": "uint256"
        }
      ],
      "name": "approve",
      "outputs": [],
      "stateMutability": "nonpayable",
      "type": "function"
    },
    {
      "inputs": [
        {
          "internalType": "address",
          "name": "owner",
          "type": "address"
        }
      ],
      "name": "balanceOf",
      "outputs": [
        {
          "internalType": "uint256",
          "name": "",
          "type": "uint256"
        }
      ],
      "stateMutability": "view",
      "type": "function",
      "constant": true
    },
    {
      "inputs": [],
      "name": "basePrice",
      "outputs": [
        {
          "internalType": "uint256",
          "name": "",
          "type": "uint256"
        }
      ],
      "stateMutability": "view",
      "type": "function",
      "constant": true
    },
    {
      "inputs": [],
      "name": "baseTokenURI",
      "outputs": [
        {
          "internalType": "string",
          "name": "",
          "type": "string"
        }
      ],
      "stateMutability": "view",
      "type": "function",
      "constant": true
    },
    {
      "inputs": [
        {
          "internalType": "uint256",
          "name": "tokenId",
          "type": "uint256"
        },
        {
          "internalType": "uint256",
          "name": "newPrice",
          "type": "uint256"
        }
      ],
      "name": "changeRentPrice",
      "outputs": [],
      "stateMutability": "nonpayable",
      "type": "function"
    },
    {
      "inputs": [
        {
          "internalType": "uint256",
          "name": "rentTokenId",
          "type": "uint256"
        }
      ],
      "name": "forceOpenPresentNFT",
      "outputs": [],
      "stateMutability": "nonpayable",
      "type": "function"
    },
    {
      "inputs": [
        {
          "internalType": "uint256",
          "name": "tokenId",
          "type": "uint256"
        }
      ],
      "name": "getApproved",
      "outputs": [
        {
          "internalType": "address",
          "name": "",
          "type": "address"
        }
      ],
      "stateMutability": "view",
      "type": "function",
      "constant": true
    },
    {
      "inputs": [
        {
          "internalType": "uint256",
          "name": "tokenId",
          "type": "uint256"
        },
        {
          "internalType": "uint256",
          "name": "searchRents",
          "type": "uint256"
        }
      ],
      "name": "getRentTokenId",
      "outputs": [
        {
          "internalType": "uint256",
          "name": "",
          "type": "uint256"
        }
      ],
      "stateMutability": "view",
      "type": "function",
      "constant": true
    },
    {
      "inputs": [
        {
          "internalType": "address",
          "name": "owner",
          "type": "address"
        },
        {
          "internalType": "address",
          "name": "operator",
          "type": "address"
        }
      ],
      "name": "isApprovedForAll",
      "outputs": [
        {
          "internalType": "bool",
          "name": "",
          "type": "bool"
        }
      ],
      "stateMutability": "view",
      "type": "function",
      "constant": true
    },
    {
      "inputs": [],
      "name": "maxRents",
      "outputs": [
        {
          "internalType": "uint64",
          "name": "",
          "type": "uint64"
        }
      ],
      "stateMutability": "view",
      "type": "function",
      "constant": true
    },
    {
      "inputs": [],
      "name": "name",
      "outputs": [
        {
          "internalType": "string",
          "name": "",
          "type": "string"
        }
      ],
      "stateMutability": "view",
      "type": "function",
      "constant": true
    },
    {
      "inputs": [
        {
          "internalType": "address",
          "name": "",
          "type": "address"
        },
        {
          "internalType": "address",
          "name": "",
          "type": "address"
        },
        {
          "internalType": "uint256",
          "name": "",
          "type": "uint256"
        },
        {
          "internalType": "bytes",
          "name": "",
          "type": "bytes"
        }
      ],
      "name": "onERC721Received",
      "outputs": [
        {
          "internalType": "bytes4",
          "name": "",
          "type": "bytes4"
        }
      ],
      "stateMutability": "nonpayable",
      "type": "function"
    },
    {
      "inputs": [
        {
          "internalType": "uint256",
          "name": "rentTokenId",
          "type": "uint256"
        }
      ],
      "name": "openPresentNFT",
      "outputs": [],
      "stateMutability": "nonpayable",
      "type": "function"
    },
    {
      "inputs": [],
      "name": "owner",
      "outputs": [
        {
          "internalType": "address",
          "name": "",
          "type": "address"
        }
      ],
      "stateMutability": "view",
      "type": "function",
      "constant": true
    },
    {
      "inputs": [
        {
          "internalType": "uint256",
          "name": "tokenId",
          "type": "uint256"
        }
      ],
      "name": "ownerOf",
      "outputs": [
        {
          "internalType": "address",
          "name": "",
          "type": "address"
        }
      ],
      "stateMutability": "view",
      "type": "function",
      "constant": true
    },
    {
      "inputs": [],
      "name": "price",
      "outputs": [
        {
          "internalType": "uint256",
          "name": "",
          "type": "uint256"
        }
      ],
      "stateMutability": "view",
      "type": "function",
      "constant": true
    },
    {
      "inputs": [],
      "name": "renounceOwnership",
      "outputs": [],
      "stateMutability": "nonpayable",
      "type": "function"
    },
    {
      "inputs": [
        {
          "internalType": "uint256",
          "name": "tokenId",
          "type": "uint256"
        },
        {
          "internalType": "uint256",
          "name": "rentTokenId",
          "type": "uint256"
        }
      ],
      "name": "rentNFT",
      "outputs": [],
      "stateMutability": "payable",
      "type": "function",
      "payable": true
    },
    {
      "inputs": [
        {
          "internalType": "uint256",
          "name": "rentId",
          "type": "uint256"
        }
      ],
      "name": "rentee",
      "outputs": [
        {
          "internalType": "address",
          "name": "",
          "type": "address"
        }
      ],
      "stateMutability": "view",
      "type": "function",
      "constant": true
    },
    {
      "inputs": [
        {
          "internalType": "address",
          "name": "from",
          "type": "address"
        },
        {
          "internalType": "address",
          "name": "to",
          "type": "address"
        },
        {
          "internalType": "uint256",
          "name": "tokenId",
          "type": "uint256"
        }
      ],
      "name": "safeTransferFrom",
      "outputs": [],
      "stateMutability": "nonpayable",
      "type": "function"
    },
    {
      "inputs": [
        {
          "internalType": "address",
          "name": "from",
          "type": "address"
        },
        {
          "internalType": "address",
          "name": "to",
          "type": "address"
        },
        {
          "internalType": "uint256",
          "name": "tokenId",
          "type": "uint256"
        },
        {
          "internalType": "bytes",
          "name": "_data",
          "type": "bytes"
        }
      ],
      "name": "safeTransferFrom",
      "outputs": [],
      "stateMutability": "nonpayable",
      "type": "function"
    },
    {
      "inputs": [
        {
          "internalType": "uint256",
          "name": "tokenId",
          "type": "uint256"
        },
        {
          "internalType": "uint256",
          "name": "rentTokenId",
          "type": "uint256"
        }
      ],
      "name": "selfRentNFT",
      "outputs": [],
      "stateMutability": "nonpayable",
      "type": "function"
    },
    {
      "inputs": [
        {
          "internalType": "address",
          "name": "to",
          "type": "address"
        },
        {
          "internalType": "uint256",
          "name": "tokenId",
          "type": "uint256"
        },
        {
          "internalType": "uint256",
          "name": "rentTokenId",
          "type": "uint256"
        },
        {
          "internalType": "address",
          "name": "contractNFT",
          "type": "address"
        },
        {
          "internalType": "uint256",
          "name": "nftId",
          "type": "uint256"
        }
      ],
      "name": "selfRentWrapAndSendPresentNFT",
      "outputs": [],
      "stateMutability": "nonpayable",
      "type": "function"
    },
    {
      "inputs": [
        {
          "internalType": "address",
          "name": "operator",
          "type": "address"
        },
        {
          "internalType": "bool",
          "name": "approved",
          "type": "bool"
        }
      ],
      "name": "setApprovalForAll",
      "outputs": [],
      "stateMutability": "nonpayable",
      "type": "function"
    },
    {
      "inputs": [
        {
          "internalType": "uint256",
          "name": "newBasePrice",
          "type": "uint256"
        }
      ],
      "name": "setBasePrice",
      "outputs": [],
      "stateMutability": "nonpayable",
      "type": "function"
    },
    {
      "inputs": [
        {
          "internalType": "uint64",
          "name": "newMaxRents",
          "type": "uint64"
        }
      ],
      "name": "setMaxRents",
      "outputs": [],
      "stateMutability": "nonpayable",
      "type": "function"
    },
    {
      "inputs": [
        {
          "internalType": "uint64",
          "name": "newMaxRents",
          "type": "uint64"
        },
        {
          "internalType": "uint256",
          "name": "tokenId",
          "type": "uint256"
        }
      ],
      "name": "setMaxRentsOne",
      "outputs": [],
      "stateMutability": "nonpayable",
      "type": "function"
    },
    {
      "inputs": [],
      "name": "startTime",
      "outputs": [
        {
          "internalType": "uint256",
          "name": "",
          "type": "uint256"
        }
      ],
      "stateMutability": "view",
      "type": "function",
      "constant": true
    },
    {
      "inputs": [
        {
          "internalType": "bytes4",
          "name": "interfaceId",
          "type": "bytes4"
        }
      ],
      "name": "supportsInterface",
      "outputs": [
        {
          "internalType": "bool",
          "name": "",
          "type": "bool"
        }
      ],
      "stateMutability": "view",
      "type": "function",
      "constant": true
    },
    {
      "inputs": [],
      "name": "symbol",
      "outputs": [
        {
          "internalType": "string",
          "name": "",
          "type": "string"
        }
      ],
      "stateMutability": "view",
      "type": "function",
      "constant": true
    },
    {
      "inputs": [
        {
          "internalType": "uint256",
          "name": "index",
          "type": "uint256"
        }
      ],
      "name": "tokenByIndex",
      "outputs": [
        {
          "internalType": "uint256",
          "name": "",
          "type": "uint256"
        }
      ],
      "stateMutability": "view",
      "type": "function",
      "constant": true
    },
    {
      "inputs": [
        {
          "internalType": "address",
          "name": "owner",
          "type": "address"
        },
        {
          "internalType": "uint256",
          "name": "index",
          "type": "uint256"
        }
      ],
      "name": "tokenOfOwnerByIndex",
      "outputs": [
        {
          "internalType": "uint256",
          "name": "",
          "type": "uint256"
        }
      ],
      "stateMutability": "view",
      "type": "function",
      "constant": true
    },
    {
      "inputs": [
        {
          "internalType": "uint256",
          "name": "tokenId",
          "type": "uint256"
        }
      ],
      "name": "tokenURI",
      "outputs": [
        {
          "internalType": "string",
          "name": "",
          "type": "string"
        }
      ],
      "stateMutability": "view",
      "type": "function",
      "constant": true
    },
    {
      "inputs": [],
      "name": "totalSupply",
      "outputs": [
        {
          "internalType": "uint256",
          "name": "",
          "type": "uint256"
        }
      ],
      "stateMutability": "view",
      "type": "function",
      "constant": true
    },
    {
      "inputs": [
        {
          "internalType": "address",
          "name": "from",
          "type": "address"
        },
        {
          "internalType": "address",
          "name": "to",
          "type": "address"
        },
        {
          "internalType": "uint256",
          "name": "tokenId",
          "type": "uint256"
        }
      ],
      "name": "transferFrom",
      "outputs": [],
      "stateMutability": "nonpayable",
      "type": "function"
    },
    {
      "inputs": [
        {
          "internalType": "address",
          "name": "newOwner",
          "type": "address"
        }
      ],
      "name": "transferOwnership",
      "outputs": [],
      "stateMutability": "nonpayable",
      "type": "function"
    },
    {
      "inputs": [
        {
          "internalType": "address",
          "name": "to",
          "type": "address"
        },
        {
          "internalType": "uint256",
          "name": "rentTokenId",
          "type": "uint256"
        },
        {
          "internalType": "address",
          "name": "contractNFT",
          "type": "address"
        },
        {
          "internalType": "uint256",
          "name": "nftId",
          "type": "uint256"
        }
      ],
      "name": "wrapAndSendPresentNFT",
      "outputs": [],
      "stateMutability": "nonpayable",
      "type": "function"
    },
    {
      "inputs": [
        {
          "internalType": "uint256",
          "name": "id",
          "type": "uint256"
        }
      ],
      "name": "reserveNFT",
      "outputs": [],
      "stateMutability": "nonpayable",
      "type": "function"
    },
    {
      "inputs": [
        {
          "internalType": "string",
          "name": "_baseTokenURI",
          "type": "string"
        }
      ],
      "name": "setBaseURI",
      "outputs": [],
      "stateMutability": "nonpayable",
      "type": "function"
    },
    {
      "inputs": [
        {
          "internalType": "uint256",
          "name": "newPrice",
          "type": "uint256"
        }
      ],
      "name": "setPrice",
      "outputs": [],
      "stateMutability": "nonpayable",
      "type": "function"
    },
    {
      "inputs": [
        {
          "internalType": "uint256",
          "name": "newStartTime",
          "type": "uint256"
        }
      ],
      "name": "setStartTime",
      "outputs": [],
      "stateMutability": "nonpayable",
      "type": "function"
    },
    {
      "inputs": [
        {
          "internalType": "uint256",
          "name": "id",
          "type": "uint256"
        }
      ],
      "name": "mintNFT",
      "outputs": [],
      "stateMutability": "payable",
      "type": "function",
      "payable": true
    },
    {
      "inputs": [
        {
          "internalType": "address",
          "name": "_owner",
          "type": "address"
        }
      ],
      "name": "tokensOfOwner",
      "outputs": [
        {
          "internalType": "uint256[]",
          "name": "",
          "type": "uint256[]"
        }
      ],
      "stateMutability": "view",
      "type": "function",
      "constant": true
    },
    {
      "inputs": [],
      "name": "withdraw",
      "outputs": [],
      "stateMutability": "payable",
      "type": "function",
      "payable": true
    }
  ],
  "bytecode": "0x6080604052662386f26fc10000600b55600c805467ffffffffffffffff1916600a17905568056bc75e2d631000006012556361aa5b206013553480156200004557600080fd5b5060405162003b5938038062003b598339810160408190526200006891620002e1565b604080518082018252600e81527f6c75636b792d70726573656e747300000000000000000000000000000000000060208083019182528351808501909452600584527f4c504e4654000000000000000000000000000000000000000000000000000000908401528151919291620000e2916000916200023b565b508051620000f89060019060208401906200023b565b505050620001276200011862000142640100000000026401000000009004565b64010000000062000146810204565b6200013b8164010000000062000198810204565b506200046b565b3390565b600a8054600160a060020a03838116600160a060020a0319831681179093556040519116919082907f8be0079c531659141344cd1fd0a4f28419497f9722a3daafe3b4186f6b6457e090600090a35050565b620001ab64010000000062000142810204565b600160a060020a0316620001c76401000000006200022c810204565b600160a060020a03161462000213576040517f08c379a00000000000000000000000000000000000000000000000000000000081526004016200020a90620003b1565b60405180910390fd5b8051620002289060149060208401906200023b565b5050565b600a54600160a060020a031690565b8280546200024990620003e6565b90600052602060002090601f0160209004810192826200026d5760008555620002b8565b82601f106200028857805160ff1916838001178555620002b8565b82800160010185558215620002b8579182015b82811115620002b85782518255916020019190600101906200029b565b50620002c6929150620002ca565b5090565b5b80821115620002c65760008155600101620002cb565b60006020808385031215620002f4578182fd5b825167ffffffffffffffff808211156200030c578384fd5b818501915085601f83011262000320578384fd5b8151818111156200033557620003356200043c565b604051601f8201601f19168101850183811182821017156200035b576200035b6200043c565b604052818152838201850188101562000372578586fd5b8592505b8183101562000395578383018501518184018601529184019162000376565b81831115620003a657858583830101525b979650505050505050565b6020808252818101527f4f776e61626c653a2063616c6c6572206973206e6f7420746865206f776e6572604082015260600190565b600281046001821680620003fb57607f821691505b6020821081141562000436577f4e487b7100000000000000000000000000000000000000000000000000000000600052602260045260246000fd5b50919050565b7f4e487b7100000000000000000000000000000000000000000000000000000000600052604160045260246000fd5b6136de806200047b6000396000f3fe6080604052600436106102755760003560e060020a9004806370a0823111610153578063a22cb465116100c5578063d547cfb71161007e578063d547cfb714610720578063d78a37ee14610735578063dc88dcde14610755578063de4b326214610775578063e985e9c514610795578063f2fde38b146107b557610275565b8063a22cb4651461066b578063a2a2397c1461068b578063b88d4fde146106ab578063bc5e5e67146106cb578063c7876ea4146106eb578063c87b56dd1461070057610275565b806391b7f5ed1161011757806391b7f5ed146105db57806392642744146105fb57806393b2d6a01461060e57806395d89b41146106215780639c99443214610636578063a035b1fe1461065657610275565b806370a082311461054f578063715018a61461056f57806378e97925146105845780638462151c146105995780638da5cb5b146105c657610275565b8063397be3fd116101ec57806355f804b3116101b057806355f804b31461048d5780635e4ba52c146104ad57806360037290146104cd5780636114665e146104ef5780636352211e1461050f578063672817671461052f57610275565b8063397be3fd146104055780633ccfd60b146104255780633e0a322d1461042d57806342842e0e1461044d5780634f6ccce71461046d57610275565b8063095ea7b31161023e578063095ea7b31461034e578063150b7a021461036e57806318160ddd1461039b57806323b872dd146103b05780632f745c59146103d057806332cb6b0c146103f057610275565b80625ce1051461027a57806301aa36fb1461029c57806301ffc9a7146102d257806306fdde03146102ff578063081812fc14610321575b600080fd5b34801561028657600080fd5b5061029a6102953660046129c3565b6107d5565b005b3480156102a857600080fd5b506102bc6102b7366004612988565b610850565b6040516102c99190612b14565b60405180910390f35b3480156102de57600080fd5b506102f26102ed3660046128f2565b6108af565b6040516102c99190612af4565b34801561030b57600080fd5b506103146108f5565b6040516102c99190612b1d565b34801561032d57600080fd5b5061034161033c366004612970565b610987565b6040516102c99190612a3c565b34801561035a57600080fd5b5061029a610369366004612839565b6109cd565b34801561037a57600080fd5b5061038e610389366004612786565b610a6b565b6040516102c99190612aff565b3480156103a757600080fd5b506102bc610a95565b3480156103bc57600080fd5b5061029a6103cb36600461274b565b610a9b565b3480156103dc57600080fd5b506102bc6103eb366004612839565b610ad6565b3480156103fc57600080fd5b506102bc610b2b565b34801561041157600080fd5b5061029a610420366004612970565b610b31565b61029a610ba4565b34801561043957600080fd5b5061029a610448366004612970565b610c8b565b34801561045957600080fd5b5061029a61046836600461274b565b610cd2565b34801561047957600080fd5b506102bc610488366004612970565b610ced565b34801561049957600080fd5b5061029a6104a836600461292a565b610d4e565b3480156104b957600080fd5b5061029a6104c8366004612862565b610da3565b3480156104d957600080fd5b506104e2610db5565b6040516102c991906134eb565b3480156104fb57600080fd5b5061029a61050a366004612988565b610dc5565b34801561051b57600080fd5b5061034161052a366004612970565b610e39565b34801561053b57600080fd5b5061034161054a366004612970565b610e71565b34801561055b57600080fd5b506102bc61056a3660046126ff565b610e7c565b34801561057b57600080fd5b5061029a610ec3565b34801561059057600080fd5b506102bc610f11565b3480156105a557600080fd5b506105b96105b43660046126ff565b610f17565b6040516102c99190612ab0565b3480156105d257600080fd5b50610341610fdb565b3480156105e757600080fd5b5061029a6105f6366004612970565b610fea565b61029a610609366004612970565b611031565b61029a61061c366004612988565b61107b565b34801561062d57600080fd5b5061031461118d565b34801561064257600080fd5b5061029a610651366004612970565b61119c565b34801561066257600080fd5b506102bc611243565b34801561067757600080fd5b5061029a6106863660046127ff565b611249565b34801561069757600080fd5b5061029a6106a63660046129a9565b61131a565b3480156106b757600080fd5b5061029a6106c6366004612786565b611380565b3480156106d757600080fd5b5061029a6106e6366004612988565b6113bc565b3480156106f757600080fd5b506102bc611466565b34801561070c57600080fd5b5061031461071b366004612970565b61146c565b34801561072c57600080fd5b506103146114f2565b34801561074157600080fd5b5061029a610750366004612970565b611580565b34801561076157600080fd5b5061029a6107703660046128a5565b61161e565b34801561078157600080fd5b5061029a610790366004612970565b61163b565b3480156107a157600080fd5b506102f26107b0366004612719565b611682565b3480156107c157600080fd5b5061029a6107d03660046126ff565b6116b0565b6107dd611724565b600160a060020a03166107ee610fdb565b600160a060020a0316146108205760405160e560020a62461bcd028152600401610817906130bf565b60405180910390fd5b6000908152600f60205260409020805467ffffffffffffffff191667ffffffffffffffff92909216919091179055565b60008061085f61012c84611728565b9050600061086f8561012c611734565b90505b818110156108a25761088381611740565b6108905791506108a99050565b61089c8161012c611734565b50610872565b5060009150505b92915050565b6000600160e060020a031982167f780e9d630000000000000000000000000000000000000000000000000000000014806108ed57506108ed8261175d565b90505b919050565b606060008054610904906135da565b80601f0160208091040260200160405190810160405280929190818152602001828054610930906135da565b801561097d5780601f106109525761010080835404028352916020019161097d565b820191906000526020600020905b81548152906001019060200180831161096057829003601f168201915b5050505050905090565b600061099282611740565b6109b15760405160e560020a62461bcd02815260040161081790613062565b50600090815260046020526040902054600160a060020a031690565b60006109d882610e39565b905080600160a060020a031683600160a060020a03161415610a0f5760405160e560020a62461bcd02815260040161081790613253565b80600160a060020a0316610a21611724565b600160a060020a03161480610a3d5750610a3d816107b0611724565b610a5c5760405160e560020a62461bcd02815260040161081790612ea8565b610a6683836117cf565b505050565b7f150b7a02000000000000000000000000000000000000000000000000000000005b949350505050565b60085490565b610aac610aa6611724565b8261183d565b610acb5760405160e560020a62461bcd02815260040161081790613355565b610a668383836118bd565b6000610ae183610e7c565b8210610b025760405160e560020a62461bcd02815260040161081790612b9e565b50600160a060020a03919091166000908152600660209081526040808320938352929052205490565b61012c81565b610b39611724565b600160a060020a0316610b4a610fdb565b600160a060020a031614610b735760405160e560020a62461bcd028152600401610817906130bf565b61012c8110610b975760405160e560020a62461bcd0281526004016108179061347d565b610ba133826119f0565b50565b610bac611724565b600160a060020a0316610bbd610fdb565b600160a060020a031614610be65760405160e560020a62461bcd028152600401610817906130bf565b303180610c085760405160e560020a62461bcd0281526004016108179061302b565b600033600160a060020a031682604051610c2190612a39565b60006040518083038185875af1925050503d8060008114610c5e576040519150601f19603f3d011682016040523d82523d6000602084013e610c63565b606091505b5050905080610c875760405160e560020a62461bcd0281526004016108179061331e565b5050565b610c93611724565b600160a060020a0316610ca4610fdb565b600160a060020a031614610ccd5760405160e560020a62461bcd028152600401610817906130bf565b601355565b610a6683838360405180602001604052806000815250611380565b6000610cf7610a95565b8210610d185760405160e560020a62461bcd028152600401610817906133e9565b60088281548110610d3c5760e060020a634e487b7102600052603260045260246000fd5b90600052602060002001549050919050565b610d56611724565b600160a060020a0316610d67610fdb565b600160a060020a031614610d905760405160e560020a62461bcd028152600401610817906130bf565b8051610c879060149060208401906125c7565b610daf84848484611a0a565b50505050565b600c5467ffffffffffffffff1681565b8161012c8110610dea5760405160e560020a62461bcd02815260040161081790612b67565b610df383610e39565b600160a060020a031633600160a060020a031614610e265760405160e560020a62461bcd028152600401610817906132b0565b506000918252600d602052604090912055565b600081815260026020526040812054600160a060020a0316806108ed5760405160e560020a62461bcd02815260040161081790612f62565b60006108ed82610e39565b6000600160a060020a038216610ea75760405160e560020a62461bcd02815260040161081790612f05565b50600160a060020a031660009081526003602052604090205490565b610ecb611724565b600160a060020a0316610edc610fdb565b600160a060020a031614610f055760405160e560020a62461bcd028152600401610817906130bf565b610f0f6000611b3b565b565b60135481565b60606000610f2483610e7c565b905060008167ffffffffffffffff811115610f525760e060020a634e487b7102600052604160045260246000fd5b604051908082528060200260200182016040528015610f7b578160200160208202803683370190505b50905060005b82811015610fd357610f938582610ad6565b828281518110610fb65760e060020a634e487b7102600052603260045260246000fd5b602090810291909101015280610fcb81613618565b915050610f81565b509392505050565b600a54600160a060020a031690565b610ff2611724565b600160a060020a0316611003610fdb565b600160a060020a03161461102c5760405160e560020a62461bcd028152600401610817906130bf565b601255565b6013544210156110565760405160e560020a62461bcd028152600401610817906131ae565b601254341015610b735760405160e560020a62461bcd02815260040161081790612db7565b8161012c81106110a05760405160e560020a62461bcd02815260040161081790612b67565b600b546000848152600d602052604090205434916110be9190611734565b11156110df5760405160e560020a62461bcd028152600401610817906133b2565b6110e98383611b8d565b6000611101600a6110fb346009611728565b90611ce3565b905061110c84610e39565b600160a060020a03166108fc829081150290604051600060405180830381858888f19350505050158015611144573d6000803e3d6000fd5b508233600160a060020a03167f7c9d2ac912c28eb5f87522b3a227c33e0884aa9c28bf987198e395fe62c491388360405161117f9190612b14565b60405180910390a350505050565b606060018054610904906135da565b61012c8110156111c15760405160e560020a62461bcd0281526004016108179061321c565b336111cb82610e39565b600160a060020a0316146111f45760405160e560020a62461bcd02815260040161081790613446565b6111fd81611cef565b8033600160a060020a03167fc07f54282544dbb07d162719c735dd3778aae9cbc322fc60f667e35de1da618560016040516112389190612af4565b60405180910390a350565b60125481565b611251611724565b600160a060020a031682600160a060020a031614156112855760405160e560020a62461bcd02815260040161081790612d80565b8060056000611292611724565b600160a060020a03908116825260208083019390935260409182016000908120918716808252919093529120805460ff1916921515929092179091556112d6611724565b600160a060020a03167f17307eab39ab6107e8899845ad3d59bd9653f200f220920489ca2b5937696c318360405161130e9190612af4565b60405180910390a35050565b611322611724565b600160a060020a0316611333610fdb565b600160a060020a03161461135c5760405160e560020a62461bcd028152600401610817906130bf565b600c805467ffffffffffffffff191667ffffffffffffffff92909216919091179055565b61139161138b611724565b8361183d565b6113b05760405160e560020a62461bcd02815260040161081790613355565b610daf84848484611e41565b8161012c81106113e15760405160e560020a62461bcd02815260040161081790612b67565b336113eb84610e39565b600160a060020a0316146114145760405160e560020a62461bcd028152600401610817906131e5565b61141e8383611b8d565b8133600160a060020a03167f7c9d2ac912c28eb5f87522b3a227c33e0884aa9c28bf987198e395fe62c4913860006040516114599190612b14565b60405180910390a3505050565b600b5481565b606061147782611740565b6114965760405160e560020a62461bcd02815260040161081790613151565b60006114a0611e77565b905060008151116114c057604051806020016040528060008152506114eb565b806114ca84611e86565b6040516020016114db929190612a0a565b6040516020818303038152906040525b9392505050565b601480546114ff906135da565b80601f016020809104026020016040519081016040528092919081815260200182805461152b906135da565b80156115785780601f1061154d57610100808354040283529160200191611578565b820191906000526020600020905b81548152906001019060200180831161155b57829003601f168201915b505050505081565b61012c8110156115a55760405160e560020a62461bcd0281526004016108179061321c565b60006115b38261012c611ffa565b9050336115bf82610e39565b600160a060020a0316146115d257600080fd5b6115db82611cef565b816115e583610e39565b600160a060020a03167fc07f54282544dbb07d162719c735dd3778aae9cbc322fc60f667e35de1da6185600060405161130e9190612af4565b61162884846113bc565b61163485848484611a0a565b5050505050565b611643611724565b600160a060020a0316611654610fdb565b600160a060020a03161461167d5760405160e560020a62461bcd028152600401610817906130bf565b600b55565b600160a060020a03918216600090815260056020908152604080832093909416825291909152205460ff1690565b6116b8611724565b600160a060020a03166116c9610fdb565b600160a060020a0316146116f25760405160e560020a62461bcd028152600401610817906130bf565b600160a060020a03811661171b5760405160e560020a62461bcd02815260040161081790612c58565b610ba181611b3b565b3390565b60006114eb828461354f565b60006114eb8284613500565b600090815260026020526040902054600160a060020a0316151590565b6000600160e060020a031982167f80ac58cd0000000000000000000000000000000000000000000000000000000014806117c05750600160e060020a031982167f5b5e139f00000000000000000000000000000000000000000000000000000000145b806108ed57506108ed82612006565b60008181526004602052604090208054600160a060020a031916600160a060020a038416908117909155819061180482610e39565b600160a060020a03167f8c5be1e5ebec7d5bd14f71427d1e84f3dd0314c0f7b2291e5b200ac8c7c3b92560405160405180910390a45050565b600061184882611740565b6118675760405160e560020a62461bcd02815260040161081790612e14565b600061187283610e39565b905080600160a060020a031684600160a060020a031614806118ad575083600160a060020a03166118a284610987565b600160a060020a0316145b80610a8d5750610a8d8185611682565b82600160a060020a03166118d082610e39565b600160a060020a0316146118f95760405160e560020a62461bcd028152600401610817906130f4565b600160a060020a0382166119225760405160e560020a62461bcd02815260040161081790612d23565b61192d838383612038565b6119386000826117cf565b600160a060020a038316600090815260036020526040812080546001929061196190849061356e565b9091555050600160a060020a038216600090815260036020526040812080546001929061198f908490613500565b90915550506000818152600260205260408082208054600160a060020a031916600160a060020a0386811691821790925591518493918716917fddf252ad1be2c89b69c2b068fc378daa952ba7f163c4a11628f55a4df523b3ef91a4505050565b610c878282604051806020016040528060008152506120c1565b61012c831015611a2f5760405160e560020a62461bcd0281526004016108179061321c565b33611a3984610e39565b600160a060020a031614611a625760405160e560020a62461bcd028152600401610817906134b4565b6040517f23b872dd000000000000000000000000000000000000000000000000000000008152600160a060020a038316906323b872dd90611aab90339030908690600401612a50565b600060405180830381600087803b158015611ac557600080fd5b505af1158015611ad9573d6000803e3d6000fd5b50505060008481526010602090815260408083208054600160a060020a031916600160a060020a03888116919091179091556011909252909120839055851633149050610daf57610daf33858560405180602001604052806000815250611e41565b600a8054600160a060020a03838116600160a060020a0319831681179093556040519116919082907f8be0079c531659141344cd1fd0a4f28419497f9722a3daafe3b4186f6b6457e090600090a35050565b600c546000838152600e602052604090205467ffffffffffffffff918216911610611bcd5760405160e560020a62461bcd02815260040161081790612e71565b6000828152600f602052604090205467ffffffffffffffff161580611c1857506000828152600f6020908152604080832054600e9092529091205467ffffffffffffffff9182169116105b611c375760405160e560020a62461bcd02815260040161081790612cec565b80821415611c5a5760405160e560020a62461bcd028152600401610817906132e7565b611c668161012c611ffa565b8214611c875760405160e560020a62461bcd02815260040161081790612fbf565b6000828152600e6020526040902054611cab9067ffffffffffffffff166001613518565b6000838152600e60205260409020805467ffffffffffffffff191667ffffffffffffffff92909216919091179055610c8733826119f0565b60006114eb828461353b565b6000611cfd8261012c611ffa565b6000818152600e6020526040902054909150600167ffffffffffffffff9091161015611d3e5760405160e560020a62461bcd02815260040161081790612b30565b600082815260106020526040902054600160a060020a03166323b872dd30611d6585610e39565b6000868152601160205260409081902054905160e060020a63ffffffff8616028152611d9693929190600401612a50565b600060405180830381600087803b158015611db057600080fd5b505af1158015611dc4573d6000803e3d6000fd5b50505050611dd1826120f7565b6000818152600e6020526040902054611df69060019067ffffffffffffffff16613585565b6000918252600e60209081526040808420805467ffffffffffffffff191667ffffffffffffffff94909416939093179092559282526010909252208054600160a060020a0319169055565b611e4c8484846118bd565b611e588484848461219e565b610daf5760405160e560020a62461bcd02815260040161081790612bfb565b606060148054610904906135da565b606081611ec7575060408051808201909152600181527f300000000000000000000000000000000000000000000000000000000000000060208201526108f0565b8160005b8115611ef15780611edb81613618565b9150611eea9050600a8361353b565b9150611ecb565b60008167ffffffffffffffff811115611f1d5760e060020a634e487b7102600052604160045260246000fd5b6040519080825280601f01601f191660200182016040528015611f47576020820181803683370190505b5090505b8415610a8d57611f5c60018361356e565b9150611f69600a86613633565b611f74906030613500565b7f010000000000000000000000000000000000000000000000000000000000000002818381518110611fb95760e060020a634e487b7102600052603260045260246000fd5b60200101907effffffffffffffffffffffffffffffffffffffffffffffffffffffffffffff1916908160001a905350611ff3600a8661353b565b9450611f4b565b60006114eb8284613633565b600160e060020a031981167f01ffc9a70000000000000000000000000000000000000000000000000000000014919050565b612043838383610a66565b600160a060020a03831661205f5761205a816122d5565b612082565b81600160a060020a031683600160a060020a031614612082576120828382612319565b600160a060020a03821661209e57612099816123b6565b610a66565b82600160a060020a031682600160a060020a031614610a6657610a668282612498565b6120cb83836124dc565b6120d8600084848461219e565b610a665760405160e560020a62461bcd02815260040161081790612bfb565b600061210282610e39565b905061211081600084612038565b61211b6000836117cf565b600160a060020a038116600090815260036020526040812080546001929061214490849061356e565b90915550506000828152600260205260408082208054600160a060020a031916905551839190600160a060020a038416907fddf252ad1be2c89b69c2b068fc378daa952ba7f163c4a11628f55a4df523b3ef908390a45050565b60006121b284600160a060020a03166125c1565b156122cd5783600160a060020a031663150b7a026121ce611724565b8786866040518563ffffffff1660e060020a0281526004016121f39493929190612a74565b602060405180830381600087803b15801561220d57600080fd5b505af192505050801561223d575060408051601f3d908101601f1916820190925261223a9181019061290e565b60015b61229a573d80801561226b576040519150601f19603f3d011682016040523d82523d6000602084013e612270565b606091505b5080516122925760405160e560020a62461bcd02815260040161081790612bfb565b805181602001fd5b600160e060020a0319167f150b7a0200000000000000000000000000000000000000000000000000000000149050610a8d565b506001610a8d565b600880546000838152600960205260408120829055600182018355919091527ff3f7a9fe364faab93b216da50a3214154f22a0a2b415b23a84c8169e8b636ee30155565b6000600161232684610e7c565b612330919061356e565b60008381526007602052604090205490915080821461238357600160a060020a03841660009081526006602090815260408083208584528252808320548484528184208190558352600790915290208190555b506000918252600760209081526040808420849055600160a060020a039094168352600681528383209183525290812055565b6008546000906123c89060019061356e565b600083815260096020526040812054600880549394509092849081106124015760e060020a634e487b7102600052603260045260246000fd5b9060005260206000200154905080600883815481106124335760e060020a634e487b7102600052603260045260246000fd5b600091825260208083209091019290925582815260099091526040808220849055858252812055600880548061247c5760e060020a634e487b7102600052603160045260246000fd5b6001900381819060005260206000200160009055905550505050565b60006124a383610e7c565b600160a060020a039093166000908152600660209081526040808320868452825280832085905593825260079052919091209190915550565b600160a060020a0382166125055760405160e560020a62461bcd02815260040161081790612ff6565b61250e81611740565b1561252e5760405160e560020a62461bcd02815260040161081790612cb5565b61253a60008383612038565b600160a060020a0382166000908152600360205260408120805460019290612563908490613500565b90915550506000818152600260205260408082208054600160a060020a031916600160a060020a03861690811790915590518392907fddf252ad1be2c89b69c2b068fc378daa952ba7f163c4a11628f55a4df523b3ef908290a45050565b3b151590565b8280546125d3906135da565b90600052602060002090601f0160209004810192826125f5576000855561263b565b82601f1061260e57805160ff191683800117855561263b565b8280016001018555821561263b579182015b8281111561263b578251825591602001919060010190612620565b5061264792915061264b565b5090565b5b80821115612647576000815560010161264c565b600067ffffffffffffffff8084111561267b5761267b613679565b604051601f8501601f19168101602001828111828210171561269f5761269f613679565b6040528481529150818385018610156126b757600080fd5b8484602083013760006020868301015250509392505050565b8035600160a060020a03811681146108f057600080fd5b803567ffffffffffffffff811681146108f057600080fd5b600060208284031215612710578081fd5b6114eb826126d0565b6000806040838503121561272b578081fd5b612734836126d0565b9150612742602084016126d0565b90509250929050565b60008060006060848603121561275f578081fd5b612768846126d0565b9250612776602085016126d0565b9150604084013590509250925092565b6000806000806080858703121561279b578081fd5b6127a4856126d0565b93506127b2602086016126d0565b925060408501359150606085013567ffffffffffffffff8111156127d4578182fd5b8501601f810187136127e4578182fd5b6127f387823560208401612660565b91505092959194509250565b60008060408385031215612811578182fd5b61281a836126d0565b91506020830135801515811461282e578182fd5b809150509250929050565b6000806040838503121561284b578182fd5b612854836126d0565b946020939093013593505050565b60008060008060808587031215612877578384fd5b612880856126d0565b935060208501359250612895604086016126d0565b9396929550929360600135925050565b600080600080600060a086880312156128bc578081fd5b6128c5866126d0565b945060208601359350604086013592506128e1606087016126d0565b949793965091946080013592915050565b600060208284031215612903578081fd5b81356114eb81613692565b60006020828403121561291f578081fd5b81516114eb81613692565b60006020828403121561293b578081fd5b813567ffffffffffffffff811115612951578182fd5b8201601f81018413612961578182fd5b610a8d84823560208401612660565b600060208284031215612981578081fd5b5035919050565b6000806040838503121561299a578182fd5b50508035926020909101359150565b6000602082840312156129ba578081fd5b6114eb826126e7565b600080604083850312156129d5578182fd5b612854836126e7565b600081518084526129f68160208601602086016135ae565b601f01601f19169290920160200192915050565b60008351612a1c8184602088016135ae565b835190830190612a308183602088016135ae565b01949350505050565b90565b600160a060020a0391909116815260200190565b600160a060020a039384168152919092166020820152604081019190915260600190565b6000600160a060020a03808716835280861660208401525083604083015260806060830152612aa660808301846129de565b9695505050505050565b6020808252825182820181905260009190848201906040850190845b81811015612ae857835183529284019291840191600101612acc565b50909695505050505050565b901515815260200190565b600160e060020a031991909116815260200190565b90815260200190565b6000602082526114eb60208301846129de565b60208082526011908201527f4e6f2072656e742077617320646f6e652e000000000000000000000000000000604082015260600190565b6020808252600d908201527f4e6f742072656e7461626c652e00000000000000000000000000000000000000604082015260600190565b6020808252602b908201527f455243373231456e756d657261626c653a206f776e657220696e646578206f7560408201527f74206f6620626f756e6473000000000000000000000000000000000000000000606082015260800190565b60208082526032908201527f4552433732313a207472616e7366657220746f206e6f6e20455243373231526560408201527f63656976657220696d706c656d656e7465720000000000000000000000000000606082015260800190565b60208082526026908201527f4f776e61626c653a206e6577206f776e657220697320746865207a65726f206160408201527f6464726573730000000000000000000000000000000000000000000000000000606082015260800190565b6020808252601c908201527f4552433732313a20746f6b656e20616c7265616479206d696e74656400000000604082015260600190565b6020808252600f908201527f546f6f206d616e792072656e74732e0000000000000000000000000000000000604082015260600190565b60208082526024908201527f4552433732313a207472616e7366657220746f20746865207a65726f2061646460408201527f7265737300000000000000000000000000000000000000000000000000000000606082015260800190565b60208082526019908201527f4552433732313a20617070726f766520746f2063616c6c657200000000000000604082015260600190565b60208082526022908201527f4e6f7420656e6f75676820657468657220746f207075726368617365204e465460408201527f732e000000000000000000000000000000000000000000000000000000000000606082015260800190565b6020808252602c908201527f4552433732313a206f70657261746f7220717565727920666f72206e6f6e657860408201527f697374656e7420746f6b656e0000000000000000000000000000000000000000606082015260800190565b60208082526017908201527f546f6f206d616e792072656e747320616c72656164792e000000000000000000604082015260600190565b60208082526038908201527f4552433732313a20617070726f76652063616c6c6572206973206e6f74206f7760408201527f6e6572206e6f7220617070726f76656420666f7220616c6c0000000000000000606082015260800190565b6020808252602a908201527f4552433732313a2062616c616e636520717565727920666f7220746865207a6560408201527f726f206164647265737300000000000000000000000000000000000000000000606082015260800190565b60208082526029908201527f4552433732313a206f776e657220717565727920666f72206e6f6e657869737460408201527f656e7420746f6b656e0000000000000000000000000000000000000000000000606082015260800190565b6020808252601a908201527f52656e74656420746f6b656e206861732077726f6e672069642e000000000000604082015260600190565b6020808252818101527f4552433732313a206d696e7420746f20746865207a65726f2061646472657373604082015260600190565b60208082526019908201527f4e6f206574686572206c65667420746f20776974686472617700000000000000604082015260600190565b6020808252602c908201527f4552433732313a20617070726f76656420717565727920666f72206e6f6e657860408201527f697374656e7420746f6b656e0000000000000000000000000000000000000000606082015260800190565b6020808252818101527f4f776e61626c653a2063616c6c6572206973206e6f7420746865206f776e6572604082015260600190565b60208082526029908201527f4552433732313a207472616e73666572206f6620746f6b656e2074686174206960408201527f73206e6f74206f776e0000000000000000000000000000000000000000000000606082015260800190565b6020808252602f908201527f4552433732314d657461646174613a2055524920717565727920666f72206e6f60408201527f6e6578697374656e7420746f6b656e0000000000000000000000000000000000606082015260800190565b60208082526017908201527f5761697420666f72206d696e7420746f2073746172742e000000000000000000604082015260600190565b6020808252601c908201527f4e6f74206f776e6572206f66206f726967696e616c20746f6b656e2e00000000604082015260600190565b60208082526012908201527f57726f6e672072656e74546f6b656e49642e0000000000000000000000000000604082015260600190565b60208082526021908201527f4552433732313a20617070726f76616c20746f2063757272656e74206f776e6560408201527f7200000000000000000000000000000000000000000000000000000000000000606082015260800190565b60208082526015908201527f4e6f74206f776e6572206f6620746865204e46542e0000000000000000000000604082015260600190565b6020808252601e908201527f547279696e6720746f2072656e74206f726967696e616c20746f6b656e2e0000604082015260600190565b60208082526010908201527f5472616e73666572206661696c65642e00000000000000000000000000000000604082015260600190565b60208082526031908201527f4552433732313a207472616e736665722063616c6c6572206973206e6f74206f60408201527f776e6572206e6f7220617070726f766564000000000000000000000000000000606082015260800190565b60208082526019908201527f4e6f7420656e6f75676820657468657220746f2072656e742e00000000000000604082015260600190565b6020808252602c908201527f455243373231456e756d657261626c653a20676c6f62616c20696e646578206f60408201527f7574206f6620626f756e64730000000000000000000000000000000000000000606082015260800190565b60208082526016908201527f4e6f742072656e74696e672074686520746f6b656e2e00000000000000000000604082015260600190565b6020808252600f908201527f4e6f204e465420746f206d696e742e0000000000000000000000000000000000604082015260600190565b6020808252601a908201527f4e6f74206f776e6572206f662072656e74656420746f6b656e2e000000000000604082015260600190565b67ffffffffffffffff91909116815260200190565b6000821982111561351357613513613647565b500190565b600067ffffffffffffffff808316818516808303821115612a3057612a30613647565b60008261354a5761354a613660565b500490565b600081600019048311821515161561356957613569613647565b500290565b60008282101561358057613580613647565b500390565b600067ffffffffffffffff838116908316818110156135a6576135a6613647565b039392505050565b60005b838110156135c95781810151838201526020016135b1565b83811115610daf5750506000910152565b6002810460018216806135ee57607f821691505b602082108114156136125760e060020a634e487b7102600052602260045260246000fd5b50919050565b600060001982141561362c5761362c613647565b5060010190565b60008261364257613642613660565b500690565b60e060020a634e487b7102600052601160045260246000fd5b60e060020a634e487b7102600052601260045260246000fd5b60e060020a634e487b7102600052604160045260246000fd5b600160e060020a031981168114610ba157600080fdfea2646970667358221220187f35f7dbbbb2cd653e4ad129a844d2f509079b9b146aefb7f564fad3d8d62464736f6c63430008000033",
  "immutableReferences": {},
  "source": "//SPDX-License-Identifier: MIT\r\npragma solidity ^0.8.0;\r\n// Version 1.0.0\r\n\r\nimport \"@openzeppelin/contracts/access/Ownable.sol\";\r\nimport \"@openzeppelin/contracts/utils/math/SafeMath.sol\";\r\nimport \"@openzeppelin/contracts/token/ERC721/extensions/ERC721Enumerable.sol\";\r\nimport \"@openzeppelin/contracts/token/ERC721/utils/ERC721Holder.sol\";\r\nimport \"./RentableNFT.sol\";\r\n\r\ncontract LuckyPresentsNFT is RentableNFT, ERC721Holder {\r\n    using SafeMath for uint256;\r\n    \r\n    uint256 public price = 100 ether;\r\n    uint256 public startTime = 1638554400;\r\n    \r\n    string public baseTokenURI;\r\n    \r\n    constructor(string memory baseURI) ERC721(\"lucky-presents\", \"LPNFT\") {\r\n        setBaseURI(baseURI);\r\n    }\r\n    \r\n    function reserveNFT(uint256 id) public onlyOwner {\r\n        require(id < MAX_SUPPLY, \"No NFT to mint.\");\r\n        _safeMint(msg.sender, id);\r\n    }\r\n    \r\n    function _baseURI() internal view virtual override returns (string memory) {\r\n        return baseTokenURI;\r\n    }\r\n    \r\n    function setBaseURI(string memory _baseTokenURI) public onlyOwner {\r\n        baseTokenURI = _baseTokenURI;\r\n    }\r\n\r\n    function setPrice(uint256 newPrice) public onlyOwner {\r\n        price = newPrice;\r\n    }\r\n    function setStartTime(uint256 newStartTime) public onlyOwner {\r\n        startTime = newStartTime;\r\n    }\r\n    \r\n    function mintNFT(uint256 id) public payable {\r\n        require(block.timestamp >= startTime, \"Wait for mint to start.\");\r\n        require(msg.value >= price, \"Not enough ether to purchase NFTs.\");\r\n        require(id < MAX_SUPPLY, \"No NFT to mint.\");\r\n\r\n        _safeMint(msg.sender, id);\r\n    }\r\n    \r\n    function tokensOfOwner(address _owner) external view returns (uint256[] memory) {\r\n        uint256 tokenCount = balanceOf(_owner);\r\n        uint256[] memory tokensId = new uint256[](tokenCount);\r\n\r\n        for (uint256 i = 0; i < tokenCount; i++) {\r\n            tokensId[i] = tokenOfOwnerByIndex(_owner, i);\r\n        }\r\n        return tokensId;\r\n    }\r\n    \r\n    function withdraw() public payable onlyOwner {\r\n        uint256 balance = address(this).balance;\r\n        require(balance > 0, \"No ether left to withdraw\");\r\n\r\n        (bool success, ) = (msg.sender).call{value: balance}(\"\");\r\n        require(success, \"Transfer failed.\");\r\n    }\r\n    \r\n}",
  "sourcePath": "D:\\programs\\my\\React\\LuckyPresents\\lucky-presents\\contracts\\LuckyPresentsNFT.sol",
  "compiler": {
    "name": "solc",
    "version": "0.8.0+commit.c7dfd78e.Emscripten.clang"
  },
  "schemaVersion": "3.4.3",
  "updatedAt": "2021-11-20T09:45:47.263Z",
  "networkType": "ethereum",
  "devdoc": {
    "kind": "dev",
    "methods": {
      "approve(address,uint256)": {
        "details": "See {IERC721-approve}."
      },
      "balanceOf(address)": {
        "details": "See {IERC721-balanceOf}."
      },
      "getApproved(uint256)": {
        "details": "See {IERC721-getApproved}."
      },
      "isApprovedForAll(address,address)": {
        "details": "See {IERC721-isApprovedForAll}."
      },
      "name()": {
        "details": "See {IERC721Metadata-name}."
      },
      "onERC721Received(address,address,uint256,bytes)": {
        "details": "See {IERC721Receiver-onERC721Received}. Always returns `IERC721Receiver.onERC721Received.selector`."
      },
      "owner()": {
        "details": "Returns the address of the current owner."
      },
      "ownerOf(uint256)": {
        "details": "See {IERC721-ownerOf}."
      },
      "renounceOwnership()": {
        "details": "Leaves the contract without owner. It will not be possible to call `onlyOwner` functions anymore. Can only be called by the current owner. NOTE: Renouncing ownership will leave the contract without an owner, thereby removing any functionality that is only available to the owner."
      },
      "safeTransferFrom(address,address,uint256)": {
        "details": "See {IERC721-safeTransferFrom}."
      },
      "safeTransferFrom(address,address,uint256,bytes)": {
        "details": "See {IERC721-safeTransferFrom}."
      },
      "setApprovalForAll(address,bool)": {
        "details": "See {IERC721-setApprovalForAll}."
      },
      "supportsInterface(bytes4)": {
        "details": "See {IERC165-supportsInterface}."
      },
      "symbol()": {
        "details": "See {IERC721Metadata-symbol}."
      },
      "tokenByIndex(uint256)": {
        "details": "See {IERC721Enumerable-tokenByIndex}."
      },
      "tokenOfOwnerByIndex(address,uint256)": {
        "details": "See {IERC721Enumerable-tokenOfOwnerByIndex}."
      },
      "tokenURI(uint256)": {
        "details": "See {IERC721Metadata-tokenURI}."
      },
      "totalSupply()": {
        "details": "See {IERC721Enumerable-totalSupply}."
      },
      "transferFrom(address,address,uint256)": {
        "details": "See {IERC721-transferFrom}."
      },
      "transferOwnership(address)": {
        "details": "Transfers ownership of the contract to a new account (`newOwner`). Can only be called by the current owner."
      }
    },
    "version": 1
  },
  "userdoc": {
    "kind": "user",
    "methods": {},
    "version": 1
  }
}